{
  "contractName": "CoShoe",
  "abi": [
    {
      "constant": true,
      "inputs": [
        {
          "name": "",
          "type": "uint256"
        }
      ],
      "name": "shoes",
      "outputs": [
        {
          "name": "owner",
          "type": "address"
        },
        {
          "name": "name",
          "type": "string"
        },
        {
          "name": "image",
          "type": "string"
        },
        {
          "name": "sold",
          "type": "bool"
        }
      ],
      "payable": false,
      "stateMutability": "view",
      "type": "function",
      "signature": "0x607473cf"
    },
    {
      "inputs": [],
      "payable": false,
      "stateMutability": "nonpayable",
      "type": "constructor",
      "signature": "constructor"
    },
    {
      "constant": false,
      "inputs": [
        {
          "name": "_name",
          "type": "string"
        },
        {
          "name": "_image",
          "type": "string"
        }
      ],
      "name": "buyShoe",
      "outputs": [
        {
          "name": "",
          "type": "uint256"
        }
      ],
      "payable": true,
      "stateMutability": "payable",
      "type": "function",
      "signature": "0x540a2f4f"
    },
    {
      "constant": true,
      "inputs": [],
      "name": "checkPurchases",
      "outputs": [
        {
          "name": "",
          "type": "bool[]"
        }
      ],
      "payable": false,
      "stateMutability": "view",
      "type": "function",
      "signature": "0x558a2b8b"
    },
    {
      "constant": true,
      "inputs": [],
      "name": "getNumberOfShoes",
      "outputs": [
        {
          "name": "",
          "type": "uint256"
        }
      ],
      "payable": false,
      "stateMutability": "view",
      "type": "function",
      "signature": "0xd616af5b"
    }
  ],
  "bytecode": "0x60806040526706f05b59d3b200006000556000600155606460025534801561002657600080fd5b506000600190505b600254811115156101725760036080604051908101604052803373ffffffffffffffffffffffffffffffffffffffff1681526020016020604051908101604052806000815250815260200160206040519081016040528060008152508152602001600015158152509080600181540180825580915050906001820390600052602060002090600402016000909192909190915060008201518160000160006101000a81548173ffffffffffffffffffffffffffffffffffffffff021916908373ffffffffffffffffffffffffffffffffffffffff1602179055506020820151816001019080519060200190610124929190610178565b506040820151816002019080519060200190610141929190610178565b5060608201518160030160006101000a81548160ff021916908315150217905550505050808060010191505061002e565b5061021d565b828054600181600116156101000203166002900490600052602060002090601f016020900481019282601f106101b957805160ff19168380011785556101e7565b828001600101855582156101e7579182015b828111156101e65782518255916020019190600101906101cb565b5b5090506101f491906101f8565b5090565b61021a91905b808211156102165760008160009055506001016101fe565b5090565b90565b610a138061022c6000396000f3fe608060405260043610610062576000357c0100000000000000000000000000000000000000000000000000000000900463ffffffff168063540a2f4f14610067578063558a2b8b146101cd578063607473cf14610239578063d616af5b14610397575b600080fd5b6101b76004803603604081101561007d57600080fd5b810190808035906020019064010000000081111561009a57600080fd5b8201836020820111156100ac57600080fd5b803590602001918460018302840111640100000000831117156100ce57600080fd5b91908080601f016020809104026020016040519081016040528093929190818152602001838380828437600081840152601f19601f8201169050808301925050505050505091929192908035906020019064010000000081111561013157600080fd5b82018360208201111561014357600080fd5b8035906020019184600183028401116401000000008311171561016557600080fd5b91908080601f016020809104026020016040519081016040528093929190818152602001838380828437600081840152601f19601f8201169050808301925050505050505091929192905050506103c2565b6040518082815260200191505060405180910390f35b3480156101d957600080fd5b506101e26106d5565b6040518080602001828103825283818151815260200191508051906020019060200280838360005b8381101561022557808201518184015260208101905061020a565b505050509050019250505060405180910390f35b34801561024557600080fd5b506102726004803603602081101561025c57600080fd5b8101908080359060200190929190505050610799565b604051808573ffffffffffffffffffffffffffffffffffffffff1673ffffffffffffffffffffffffffffffffffffffff168152602001806020018060200184151515158152602001838103835286818151815260200191508051906020019080838360005b838110156102f25780820151818401526020810190506102d7565b50505050905090810190601f16801561031f5780820380516001836020036101000a031916815260200191505b50838103825285818151815260200191508051906020019080838360005b8381101561035857808201518184015260208101905061033d565b50505050905090810190601f1680156103855780820380516001836020036101000a031916815260200191505b50965050505050505060405180910390f35b3480156103a357600080fd5b506103ac610935565b6040518082815260200191505060405180910390f35b600034600054141515610463576040517f08c379a00000000000000000000000000000000000000000000000000000000081526004018080602001828103825260238152602001807f5072696365206973206e6f742073756666696369656e74206f7220746f6f206d81526020017f756368000000000000000000000000000000000000000000000000000000000081525060400191505060405180910390fd5b600254600154111515156104df576040517f08c379a000000000000000000000000000000000000000000000000000000000815260040180806020018281038252601e8152602001807f536f7272792120416c6c2073686f65732061726520736f6c64206f757421000081525060200191505060405180910390fd5b600060018054019050600015156003828154811015156104fb57fe5b906000526020600020906004020160030160009054906101000a900460ff1615151415156105b7576040517f08c379a00000000000000000000000000000000000000000000000000000000081526004018080602001828103825260248152602001807f546861742073686f652068617320616c7261656479206265656e20707572636881526020017f617365640000000000000000000000000000000000000000000000000000000081525060400191505060405180910390fd5b336003828154811015156105c757fe5b906000526020600020906004020160000160006101000a81548173ffffffffffffffffffffffffffffffffffffffff021916908373ffffffffffffffffffffffffffffffffffffffff1602179055508360038281548110151561062657fe5b9060005260206000209060040201600101908051906020019061064a929190610942565b508260038281548110151561065b57fe5b9060005260206000209060040201600201908051906020019061067f929190610942565b50600160038281548110151561069157fe5b906000526020600020906004020160030160006101000a81548160ff0219169083151502179055506001806000828254019250508190555060015491505092915050565b60608060008090505b600380549050811015610791573373ffffffffffffffffffffffffffffffffffffffff1660038281548110151561071157fe5b906000526020600020906004020160000160009054906101000a900473ffffffffffffffffffffffffffffffffffffffff1673ffffffffffffffffffffffffffffffffffffffff161415610784576001828281518110151561076f57fe5b90602001906020020190151590811515815250505b80806001019150506106de565b508091505090565b6003818154811015156107a857fe5b90600052602060002090600402016000915090508060000160009054906101000a900473ffffffffffffffffffffffffffffffffffffffff1690806001018054600181600116156101000203166002900480601f01602080910402602001604051908101604052809291908181526020018280546001816001161561010002031660029004801561087a5780601f1061084f5761010080835404028352916020019161087a565b820191906000526020600020905b81548152906001019060200180831161085d57829003601f168201915b505050505090806002018054600181600116156101000203166002900480601f0160208091040260200160405190810160405280929190818152602001828054600181600116156101000203166002900480156109185780601f106108ed57610100808354040283529160200191610918565b820191906000526020600020905b8154815290600101906020018083116108fb57829003601f168201915b5050505050908060030160009054906101000a900460ff16905084565b6000600380549050905090565b828054600181600116156101000203166002900490600052602060002090601f016020900481019282601f1061098357805160ff19168380011785556109b1565b828001600101855582156109b1579182015b828111156109b0578251825591602001919060010190610995565b5b5090506109be91906109c2565b5090565b6109e491905b808211156109e05760008160009055506001016109c8565b5090565b9056fea165627a7a72305820b39e3f88dee163f9cb84482158a9c588f314093e4570bc2cfa10c7f21c2da3170029",
  "source": "pragma solidity >=0.4.17 <0.6.0;\n\n\ncontract CoShoe {\n    //define struct Shoe that represents a shoe\n    struct Shoe {\n        address payable owner;  //the address of owner of the shoe\n        string name;\n        string image;\n        bool sold;\n\n    }\n    uint256 price = 5*(10**17);\n    uint256 ShoesSold = 0;   \n    uint256 supply = 100;\n    Shoe[] public shoes; //initialise array\n    \n    constructor() public {\n        //mint 100 shoes\n        for (uint i=1;i<=supply;i++) {\n        //add each shoe to array\n        shoes.push(Shoe(msg.sender,\"\",\"\",false)); \n    \n        }\n    }\n      // function  to buy a shoe gievn name and image\n    function buyShoe(string memory _name,string memory _image)public payable returns(uint) {\n        require(price == msg.value, 'Price is not sufficient or too much'); \n        require(ShoesSold <= supply,'Sorry! All shoes are sold out!'); //check that there is still pair of shoes left has not been sold\n\n         uint256 soldShoe = ShoesSold+1; //sell shoe that\n         require(shoes[soldShoe].sold == false, \"That shoe has alraedy been purchased\");\n         //transfer ownership of the shoe\n        shoes[soldShoe].owner = msg.sender;\n        shoes[soldShoe].name = _name;\n        shoes[soldShoe].image = _image;\n        shoes[soldShoe].sold = true;\n        ShoesSold+=1;  //update shoes sold\n        return ShoesSold;\n    }\n\n    function checkPurchases() external view returns(bool[] memory) {\n        bool[] memory Buy ;  //array of booleans to store purchases\n            // loop through the buyer addresses\n        for (uint256 i = 0; i < shoes.length; i++){\n        // check whether the msg.sender is among the buyer addresses\n         if (shoes[i].owner == msg.sender){\n            // if yes, make it true\n            Buy[i] = true;\n         } \n        }\n        return Buy;\n\n  }\n    //gets number of shoes in shoes array\n    function getNumberOfShoes() public view returns(uint) {\n        return shoes.length;\n    }\n}",
  "sourcePath": "/Users/kalubachikonde/Documents/GitHub/Fintech-and-Cryptocurrencies-Exam/contracts/CoShoe.sol",
  "compiler": {
    "name": "solc",
    "version": "0.5.0+commit.1d4f565a.Emscripten.clang"
  },
  "schemaVersion": "3.0.6",
  "updatedAt": "2019-08-05T02:47:16.779Z",
  "devdoc": {
    "methods": {}
  },
  "userdoc": {
    "methods": {}
  }
}