{
  "contractName": "CoShoe",
  "abi": [
    {
      "constant": true,
      "inputs": [
        {
          "name": "",
          "type": "uint256"
        }
      ],
      "name": "shoes",
      "outputs": [
        {
          "name": "owner",
          "type": "address"
        },
        {
          "name": "name",
          "type": "string"
        },
        {
          "name": "image",
          "type": "string"
        },
        {
          "name": "sold",
          "type": "bool"
        }
      ],
      "payable": false,
      "stateMutability": "view",
      "type": "function"
    },
    {
      "inputs": [],
      "payable": false,
      "stateMutability": "nonpayable",
      "type": "constructor"
    },
    {
      "constant": false,
      "inputs": [
        {
          "name": "name",
          "type": "string"
        },
        {
          "name": "image",
          "type": "string"
        }
      ],
      "name": "buyShoe",
      "outputs": [],
      "payable": true,
      "stateMutability": "payable",
      "type": "function"
    },
    {
      "constant": true,
      "inputs": [],
      "name": "checkPurchases",
      "outputs": [
        {
          "name": "",
          "type": "bool[]"
        }
      ],
      "payable": false,
      "stateMutability": "view",
      "type": "function"
    }
  ],
  "bytecode": "0x6080604052631dcd6500600055600060015534801561001d57600080fd5b50600160026080604051908101604052803373ffffffffffffffffffffffffffffffffffffffff1681526020016020604051908101604052806000815250815260200160206040519081016040528060008152508152602001600015158152509080600181540180825580915050906001820390600052602060002090600402016000909192909190915060008201518160000160006101000a81548173ffffffffffffffffffffffffffffffffffffffff021916908373ffffffffffffffffffffffffffffffffffffffff160217905550602082015181600101908051906020019061010b929190610152565b506040820151816002019080519060200190610128929190610152565b5060608201518160030160006101000a81548160ff021916908315150217905550505050506101f7565b828054600181600116156101000203166002900490600052602060002090601f016020900481019282601f1061019357805160ff19168380011785556101c1565b828001600101855582156101c1579182015b828111156101c05782518255916020019190600101906101a5565b5b5090506101ce91906101d2565b5090565b6101f491905b808211156101f05760008160009055506001016101d8565b5090565b90565b6108c2806102066000396000f3fe608060405260043610610057576000357c0100000000000000000000000000000000000000000000000000000000900463ffffffff168063540a2f4f1461005c578063558a2b8b146101ae578063607473cf1461021a575b600080fd5b6101ac6004803603604081101561007257600080fd5b810190808035906020019064010000000081111561008f57600080fd5b8201836020820111156100a157600080fd5b803590602001918460018302840111640100000000831117156100c357600080fd5b91908080601f016020809104026020016040519081016040528093929190818152602001838380828437600081840152601f19601f8201169050808301925050505050505091929192908035906020019064010000000081111561012657600080fd5b82018360208201111561013857600080fd5b8035906020019184600183028401116401000000008311171561015a57600080fd5b91908080601f016020809104026020016040519081016040528093929190818152602001838380828437600081840152601f19601f820116905080830192505050505050509192919290505050610378565b005b3480156101ba57600080fd5b506101c3610591565b6040518080602001828103825283818151815260200191508051906020019060200280838360005b838110156102065780820151818401526020810190506101eb565b505050509050019250505060405180910390f35b34801561022657600080fd5b506102536004803603602081101561023d57600080fd5b8101908080359060200190929190505050610655565b604051808573ffffffffffffffffffffffffffffffffffffffff1673ffffffffffffffffffffffffffffffffffffffff168152602001806020018060200184151515158152602001838103835286818151815260200191508051906020019080838360005b838110156102d35780820151818401526020810190506102b8565b50505050905090810190601f1680156103005780820380516001836020036101000a031916815260200191505b50838103825285818151815260200191508051906020019080838360005b8381101561033957808201518184015260208101905061031e565b50505050905090810190601f1680156103665780820380516001836020036101000a031916815260200191505b50965050505050505060405180910390f35b60006002805490501115156103d0576040517f08c379a0000000000000000000000000000000000000000000000000000000008152600401808060200182810382526000815260200160200191505060405180910390fd5b6000543414151561046f576040517f08c379a00000000000000000000000000000000000000000000000000000000081526004018080602001828103825260238152602001807f5072696365206973206e6f742073756666696369656e74206f7220746f6f206d81526020017f756368000000000000000000000000000000000000000000000000000000000081525060400191505060405180910390fd5b60026080604051908101604052803373ffffffffffffffffffffffffffffffffffffffff168152602001848152602001838152602001600115158152509080600181540180825580915050906001820390600052602060002090600402016000909192909190915060008201518160000160006101000a81548173ffffffffffffffffffffffffffffffffffffffff021916908373ffffffffffffffffffffffffffffffffffffffff160217905550602082015181600101908051906020019061053a9291906107f1565b5060408201518160020190805190602001906105579291906107f1565b5060608201518160030160006101000a81548160ff0219169083151502179055505050506001600081548092919060010191905055505050565b60608060008090505b60028054905081101561064d573373ffffffffffffffffffffffffffffffffffffffff166002828154811015156105cd57fe5b906000526020600020906004020160000160009054906101000a900473ffffffffffffffffffffffffffffffffffffffff1673ffffffffffffffffffffffffffffffffffffffff161415610640576001828281518110151561062b57fe5b90602001906020020190151590811515815250505b808060010191505061059a565b508091505090565b60028181548110151561066457fe5b90600052602060002090600402016000915090508060000160009054906101000a900473ffffffffffffffffffffffffffffffffffffffff1690806001018054600181600116156101000203166002900480601f0160208091040260200160405190810160405280929190818152602001828054600181600116156101000203166002900480156107365780601f1061070b57610100808354040283529160200191610736565b820191906000526020600020905b81548152906001019060200180831161071957829003601f168201915b505050505090806002018054600181600116156101000203166002900480601f0160208091040260200160405190810160405280929190818152602001828054600181600116156101000203166002900480156107d45780601f106107a9576101008083540402835291602001916107d4565b820191906000526020600020905b8154815290600101906020018083116107b757829003601f168201915b5050505050908060030160009054906101000a900460ff16905084565b828054600181600116156101000203166002900490600052602060002090601f016020900481019282601f1061083257805160ff1916838001178555610860565b82800160010185558215610860579182015b8281111561085f578251825591602001919060010190610844565b5b50905061086d9190610871565b5090565b61089391905b8082111561088f576000816000905550600101610877565b5090565b9056fea165627a7a72305820101c04ad4c63f17f5c721f01aee763c446c7be79ad0fa65125235eedfb576b1f0029",
  "source": "pragma solidity >=0.4.17 <0.6.0;\n\ncontract CoShoe {\n    //define struct Shoe that represents a shoe\n    struct Shoe {\n        address payable owner;  //the address of owner of the shoe\n        string name;\n        string image;\n        bool sold;\n\n    }\n    uint256 price = 0.5*10**9;\n    uint256 ShoesSold = 0;   \n    Shoe[] public shoes;\n    \n    constructor() public{\n        //mint 100 token \n        shoes.push(Shoe(msg.sender,\"\",\"\",false)) -1 ; \n    }\n\n    function buyShoe(string memory name,string memory image) public payable {\n\n        require(shoes.length > 0 ,''); //check that there is still pair of shoes left has not been sold\n        require(msg.value == price, 'Price is not sufficient or too much'); // \n        shoes.push(Shoe(msg.sender, name,image,true));\n        ShoesSold++;\n\n    }\n\n    function checkPurchases() external view returns(bool[] memory) {\n        bool[] memory checkBuy; \n            // loop through the buyer addresses\n        for (uint i = 0; i < shoes.length; i++){\n        // check whether the msg.sender is among the buyer addresses\n        if (shoes[i].owner == msg.sender){\n            // if yes, return true\n            checkBuy[i] = true;\n        }\n        }\n        return checkBuy;\n\n  }\n}",
  "sourcePath": "/Users/kalubachikonde/Documents/GitHub/Fintech-and-Cryptocurrencies-Exam/contracts/CoShoe.sol",
  "compiler": {
    "name": "solc",
    "version": "0.5.0+commit.1d4f565a.Emscripten.clang"
  },
  "schemaVersion": "3.0.6",
  "updatedAt": "2019-08-02T19:03:05.755Z",
  "devdoc": {
    "methods": {}
  },
  "userdoc": {
    "methods": {}
  }
}